{
  "contractName": "CarRental",
  "abi": [
    {
      "inputs": [],
      "stateMutability": "nonpayable",
      "type": "constructor"
    },
    {
      "anonymous": false,
      "inputs": [
        {
          "indexed": false,
          "internalType": "uint256",
          "name": "carId",
          "type": "uint256"
        },
        {
          "indexed": false,
          "internalType": "string",
          "name": "brand",
          "type": "string"
        },
        {
          "indexed": false,
          "internalType": "string",
          "name": "model",
          "type": "string"
        },
        {
          "indexed": false,
          "internalType": "string",
          "name": "yearOfConstruction",
          "type": "string"
        }
      ],
      "name": "CarAdded",
      "type": "event"
    },
    {
      "anonymous": false,
      "inputs": [
        {
          "indexed": false,
          "internalType": "uint256",
          "name": "carId",
          "type": "uint256"
        }
      ],
      "name": "CarRemoved",
      "type": "event"
    },
    {
      "anonymous": false,
      "inputs": [
        {
          "indexed": false,
          "internalType": "uint256",
          "name": "carId",
          "type": "uint256"
        },
        {
          "indexed": true,
          "internalType": "address",
          "name": "renter",
          "type": "address"
        },
        {
          "indexed": false,
          "internalType": "uint256",
          "name": "numDays",
          "type": "uint256"
        }
      ],
      "name": "CarRented",
      "type": "event"
    },
    {
      "anonymous": false,
      "inputs": [
        {
          "indexed": false,
          "internalType": "uint256",
          "name": "carId",
          "type": "uint256"
        },
        {
          "indexed": true,
          "internalType": "address",
          "name": "renter",
          "type": "address"
        }
      ],
      "name": "CarReturned",
      "type": "event"
    },
    {
      "inputs": [
        {
          "internalType": "uint256",
          "name": "",
          "type": "uint256"
        }
      ],
      "name": "carRenters",
      "outputs": [
        {
          "internalType": "address",
          "name": "",
          "type": "address"
        }
      ],
      "stateMutability": "view",
      "type": "function",
      "constant": true
    },
    {
      "inputs": [
        {
          "internalType": "uint256",
          "name": "",
          "type": "uint256"
        }
      ],
      "name": "cars",
      "outputs": [
        {
          "internalType": "uint256",
          "name": "id",
          "type": "uint256"
        },
        {
          "internalType": "address",
          "name": "owner",
          "type": "address"
        },
        {
          "internalType": "string",
          "name": "brand",
          "type": "string"
        },
        {
          "internalType": "string",
          "name": "model",
          "type": "string"
        },
        {
          "internalType": "string",
          "name": "yearOfConstruction",
          "type": "string"
        },
        {
          "internalType": "uint256",
          "name": "rentalPricePerDay",
          "type": "uint256"
        },
        {
          "internalType": "bool",
          "name": "isRented",
          "type": "bool"
        }
      ],
      "stateMutability": "view",
      "type": "function",
      "constant": true
    },
    {
      "inputs": [
        {
          "internalType": "address",
          "name": "",
          "type": "address"
        }
      ],
      "name": "deposits",
      "outputs": [
        {
          "internalType": "uint256",
          "name": "",
          "type": "uint256"
        }
      ],
      "stateMutability": "view",
      "type": "function",
      "constant": true
    },
    {
      "inputs": [
        {
          "internalType": "string",
          "name": "_brand",
          "type": "string"
        },
        {
          "internalType": "string",
          "name": "_model",
          "type": "string"
        },
        {
          "internalType": "string",
          "name": "_yearOfConstruction",
          "type": "string"
        },
        {
          "internalType": "uint256",
          "name": "_rentalPricePerDay",
          "type": "uint256"
        }
      ],
      "name": "addCar",
      "outputs": [],
      "stateMutability": "nonpayable",
      "type": "function"
    },
    {
      "inputs": [
        {
          "internalType": "uint256",
          "name": "_carId",
          "type": "uint256"
        },
        {
          "internalType": "uint256",
          "name": "_numDays",
          "type": "uint256"
        }
      ],
      "name": "rentCar",
      "outputs": [],
      "stateMutability": "payable",
      "type": "function",
      "payable": true
    },
    {
      "inputs": [
        {
          "internalType": "uint256",
          "name": "_carId",
          "type": "uint256"
        }
      ],
      "name": "returnCar",
      "outputs": [],
      "stateMutability": "nonpayable",
      "type": "function"
    },
    {
      "inputs": [
        {
          "internalType": "uint256",
          "name": "_carId",
          "type": "uint256"
        }
      ],
      "name": "getCar",
      "outputs": [
        {
          "components": [
            {
              "internalType": "uint256",
              "name": "id",
              "type": "uint256"
            },
            {
              "internalType": "address",
              "name": "owner",
              "type": "address"
            },
            {
              "internalType": "string",
              "name": "brand",
              "type": "string"
            },
            {
              "internalType": "string",
              "name": "model",
              "type": "string"
            },
            {
              "internalType": "string",
              "name": "yearOfConstruction",
              "type": "string"
            },
            {
              "internalType": "uint256",
              "name": "rentalPricePerDay",
              "type": "uint256"
            },
            {
              "internalType": "bool",
              "name": "isRented",
              "type": "bool"
            }
          ],
          "internalType": "struct CarRental.Car",
          "name": "",
          "type": "tuple"
        }
      ],
      "stateMutability": "view",
      "type": "function",
      "constant": true
    },
    {
      "inputs": [
        {
          "internalType": "uint256",
          "name": "_carId",
          "type": "uint256"
        }
      ],
      "name": "removeCar",
      "outputs": [],
      "stateMutability": "nonpayable",
      "type": "function"
    }
  ],
  "bytecode": "0x6080604052600060015534801561001557600080fd5b50336000806101000a81548173ffffffffffffffffffffffffffffffffffffffff021916908373ffffffffffffffffffffffffffffffffffffffff160217905550611c37806100656000396000f3fe60806040526004361061007b5760003560e01c80639ca0fc0d1161004e5780639ca0fc0d1461014c578063d2d50bd814610168578063f7746e3614610191578063fc7e286d146101d45761007b565b806317f956e0146100805780635e8be190146100a95780636a38ddb3146100e657806395118bd51461010f575b600080fd5b34801561008c57600080fd5b506100a760048036038101906100a29190610f77565b610211565b005b3480156100b557600080fd5b506100d060048036038101906100cb9190610f77565b61042a565b6040516100dd9190611149565b60405180910390f35b3480156100f257600080fd5b5061010d60048036038101906101089190610f77565b610692565b005b34801561011b57600080fd5b5061013660048036038101906101319190610f77565b61084f565b604051610143919061117a565b60405180910390f35b61016660048036038101906101619190611195565b610882565b005b34801561017457600080fd5b5061018f600480360381019061018a919061130a565b610a50565b005b34801561019d57600080fd5b506101b860048036038101906101b39190610f77565b610c5c565b6040516101cb979695949392919061142d565b60405180910390f35b3480156101e057600080fd5b506101fb60048036038101906101f691906114dd565b610e63565b604051610208919061150a565b60405180910390f35b3373ffffffffffffffffffffffffffffffffffffffff166003600083815260200190815260200160002060009054906101000a900473ffffffffffffffffffffffffffffffffffffffff1673ffffffffffffffffffffffffffffffffffffffff16146102b2576040517f08c379a00000000000000000000000000000000000000000000000000000000081526004016102a990611597565b60405180910390fd5b60006002600083815260200190815260200160002090506000600460003373ffffffffffffffffffffffffffffffffffffffff1673ffffffffffffffffffffffffffffffffffffffff16815260200190815260200160002054905060006002836005015461032091906115e6565b8261032b9190611628565b90506000600460003373ffffffffffffffffffffffffffffffffffffffff1673ffffffffffffffffffffffffffffffffffffffff168152602001908152602001600020819055503373ffffffffffffffffffffffffffffffffffffffff166108fc829081150290604051600060405180830381858888f193505050501580156103b8573d6000803e3d6000fd5b5060008360060160006101000a81548160ff0219169083151502179055503373ffffffffffffffffffffffffffffffffffffffff167fc0de8d61eb21cbee172fbd668a1694aaadbe1e0cd72b19a7471fdae993be2e788560405161041c919061150a565b60405180910390a250505050565b610432610e7b565b600260008381526020019081526020016000206040518060e0016040529081600082015481526020016001820160009054906101000a900473ffffffffffffffffffffffffffffffffffffffff1673ffffffffffffffffffffffffffffffffffffffff1673ffffffffffffffffffffffffffffffffffffffff1681526020016002820180546104c09061168b565b80601f01602080910402602001604051908101604052809291908181526020018280546104ec9061168b565b80156105395780601f1061050e57610100808354040283529160200191610539565b820191906000526020600020905b81548152906001019060200180831161051c57829003601f168201915b505050505081526020016003820180546105529061168b565b80601f016020809104026020016040519081016040528092919081815260200182805461057e9061168b565b80156105cb5780601f106105a0576101008083540402835291602001916105cb565b820191906000526020600020905b8154815290600101906020018083116105ae57829003601f168201915b505050505081526020016004820180546105e49061168b565b80601f01602080910402602001604051908101604052809291908181526020018280546106109061168b565b801561065d5780601f106106325761010080835404028352916020019161065d565b820191906000526020600020905b81548152906001019060200180831161064057829003601f168201915b50505050508152602001600582015481526020016006820160009054906101000a900460ff1615151515815250509050919050565b60008054906101000a900473ffffffffffffffffffffffffffffffffffffffff1673ffffffffffffffffffffffffffffffffffffffff163373ffffffffffffffffffffffffffffffffffffffff1614610720576040517f08c379a00000000000000000000000000000000000000000000000000000000081526004016107179061172e565b60405180910390fd5b6002600082815260200190815260200160002060060160009054906101000a900460ff1615610784576040517f08c379a000000000000000000000000000000000000000000000000000000000815260040161077b906117c0565b60405180910390fd5b600260008281526020019081526020016000206000808201600090556001820160006101000a81549073ffffffffffffffffffffffffffffffffffffffff02191690556002820160006107d79190610ed0565b6003820160006107e79190610ed0565b6004820160006107f79190610ed0565b60058201600090556006820160006101000a81549060ff021916905550507f3be6fe42407ad49db2245b58ec66dde8cf64b629871296152efce17988637b9581604051610844919061150a565b60405180910390a150565b60036020528060005260406000206000915054906101000a900473ffffffffffffffffffffffffffffffffffffffff1681565b60006002600084815260200190815260200160002090508060060160009054906101000a900460ff16156108eb576040517f08c379a00000000000000000000000000000000000000000000000000000000081526004016108e29061182c565b60405180910390fd5b60028282600501546108fd91906115e6565b61090791906115e6565b3414610948576040517f08c379a000000000000000000000000000000000000000000000000000000000815260040161093f90611898565b60405180910390fd5b336003600085815260200190815260200160002060006101000a81548173ffffffffffffffffffffffffffffffffffffffff021916908373ffffffffffffffffffffffffffffffffffffffff16021790555034600460003373ffffffffffffffffffffffffffffffffffffffff1673ffffffffffffffffffffffffffffffffffffffff1681526020019081526020016000208190555060018160060160006101000a81548160ff0219169083151502179055503373ffffffffffffffffffffffffffffffffffffffff167fe880d822f4bdb63368fee99cd4a95706e7c7fdf51c0d2edd68bb8f4d0ea0fe728484604051610a439291906118b8565b60405180910390a2505050565b60008054906101000a900473ffffffffffffffffffffffffffffffffffffffff1673ffffffffffffffffffffffffffffffffffffffff163373ffffffffffffffffffffffffffffffffffffffff1614610ade576040517f08c379a0000000000000000000000000000000000000000000000000000000008152600401610ad59061172e565b60405180910390fd5b600060016000815480929190610af3906118e1565b9190505590506040518060e001604052808281526020013373ffffffffffffffffffffffffffffffffffffffff16815260200186815260200185815260200184815260200183815260200160001515815250600260008381526020019081526020016000206000820151816000015560208201518160010160006101000a81548173ffffffffffffffffffffffffffffffffffffffff021916908373ffffffffffffffffffffffffffffffffffffffff1602179055506040820151816002019081610bbe9190611ad5565b506060820151816003019081610bd49190611ad5565b506080820151816004019081610bea9190611ad5565b5060a0820151816005015560c08201518160060160006101000a81548160ff0219169083151502179055509050507f7c4a6944bd50bf2ec4a4c3647567721ca9d425f4f334e8d5668608e13fee788b81868686604051610c4d9493929190611ba7565b60405180910390a15050505050565b60026020528060005260406000206000915090508060000154908060010160009054906101000a900473ffffffffffffffffffffffffffffffffffffffff1690806002018054610cab9061168b565b80601f0160208091040260200160405190810160405280929190818152602001828054610cd79061168b565b8015610d245780601f10610cf957610100808354040283529160200191610d24565b820191906000526020600020905b815481529060010190602001808311610d0757829003601f168201915b505050505090806003018054610d399061168b565b80601f0160208091040260200160405190810160405280929190818152602001828054610d659061168b565b8015610db25780601f10610d8757610100808354040283529160200191610db2565b820191906000526020600020905b815481529060010190602001808311610d9557829003601f168201915b505050505090806004018054610dc79061168b565b80601f0160208091040260200160405190810160405280929190818152602001828054610df39061168b565b8015610e405780601f10610e1557610100808354040283529160200191610e40565b820191906000526020600020905b815481529060010190602001808311610e2357829003601f168201915b5050505050908060050154908060060160009054906101000a900460ff16905087565b60046020528060005260406000206000915090505481565b6040518060e0016040528060008152602001600073ffffffffffffffffffffffffffffffffffffffff168152602001606081526020016060815260200160608152602001600081526020016000151581525090565b508054610edc9061168b565b6000825580601f10610eee5750610f0d565b601f016020900490600052602060002090810190610f0c9190610f10565b5b50565b5b80821115610f29576000816000905550600101610f11565b5090565b6000604051905090565b600080fd5b600080fd5b6000819050919050565b610f5481610f41565b8114610f5f57600080fd5b50565b600081359050610f7181610f4b565b92915050565b600060208284031215610f8d57610f8c610f37565b5b6000610f9b84828501610f62565b91505092915050565b610fad81610f41565b82525050565b600073ffffffffffffffffffffffffffffffffffffffff82169050919050565b6000610fde82610fb3565b9050919050565b610fee81610fd3565b82525050565b600081519050919050565b600082825260208201905092915050565b60005b8381101561102e578082015181840152602081019050611013565b60008484015250505050565b6000601f19601f8301169050919050565b600061105682610ff4565b6110608185610fff565b9350611070818560208601611010565b6110798161103a565b840191505092915050565b60008115159050919050565b61109981611084565b82525050565b600060e0830160008301516110b76000860182610fa4565b5060208301516110ca6020860182610fe5565b50604083015184820360408601526110e2828261104b565b915050606083015184820360608601526110fc828261104b565b91505060808301518482036080860152611116828261104b565b91505060a083015161112b60a0860182610fa4565b5060c083015161113e60c0860182611090565b508091505092915050565b60006020820190508181036000830152611163818461109f565b905092915050565b61117481610fd3565b82525050565b600060208201905061118f600083018461116b565b92915050565b600080604083850312156111ac576111ab610f37565b5b60006111ba85828601610f62565b92505060206111cb85828601610f62565b9150509250929050565b600080fd5b600080fd5b7f4e487b7100000000000000000000000000000000000000000000000000000000600052604160045260246000fd5b6112178261103a565b810181811067ffffffffffffffff82111715611236576112356111df565b5b80604052505050565b6000611249610f2d565b9050611255828261120e565b919050565b600067ffffffffffffffff821115611275576112746111df565b5b61127e8261103a565b9050602081019050919050565b82818337600083830152505050565b60006112ad6112a88461125a565b61123f565b9050828152602081018484840111156112c9576112c86111da565b5b6112d484828561128b565b509392505050565b600082601f8301126112f1576112f06111d5565b5b813561130184826020860161129a565b91505092915050565b6000806000806080858703121561132457611323610f37565b5b600085013567ffffffffffffffff81111561134257611341610f3c565b5b61134e878288016112dc565b945050602085013567ffffffffffffffff81111561136f5761136e610f3c565b5b61137b878288016112dc565b935050604085013567ffffffffffffffff81111561139c5761139b610f3c565b5b6113a8878288016112dc565b92505060606113b987828801610f62565b91505092959194509250565b6113ce81610f41565b82525050565b600082825260208201905092915050565b60006113f082610ff4565b6113fa81856113d4565b935061140a818560208601611010565b6114138161103a565b840191505092915050565b61142781611084565b82525050565b600060e082019050611442600083018a6113c5565b61144f602083018961116b565b818103604083015261146181886113e5565b9050818103606083015261147581876113e5565b9050818103608083015261148981866113e5565b905061149860a08301856113c5565b6114a560c083018461141e565b98975050505050505050565b6114ba81610fd3565b81146114c557600080fd5b50565b6000813590506114d7816114b1565b92915050565b6000602082840312156114f3576114f2610f37565b5b6000611501848285016114c8565b91505092915050565b600060208201905061151f60008301846113c5565b92915050565b7f566f7573206e27c3aa74657320706173206c65206c6f6361746169726520646560008201527f20636574206175746f0000000000000000000000000000000000000000000000602082015250565b60006115816029836113d4565b915061158c82611525565b604082019050919050565b600060208201905081810360008301526115b081611574565b9050919050565b7f4e487b7100000000000000000000000000000000000000000000000000000000600052601160045260246000fd5b60006115f182610f41565b91506115fc83610f41565b925082820261160a81610f41565b91508282048414831517611621576116206115b7565b5b5092915050565b600061163382610f41565b915061163e83610f41565b9250828203905081811115611656576116556115b7565b5b92915050565b7f4e487b7100000000000000000000000000000000000000000000000000000000600052602260045260246000fd5b600060028204905060018216806116a357607f821691505b6020821081036116b6576116b561165c565b5b50919050565b7f436574746520706572736f6e6e65206e2765737420706173206c652070726f7060008201527f7269c3a97461697265206465206c276175746f00000000000000000000000000602082015250565b60006117186033836113d4565b9150611723826116bc565b604082019050919050565b600060208201905081810360008301526117478161170b565b9050919050565b7f4c276175746f20657374207072c3a973656e74656d656e742064c3a96ac3a02060008201527f6c6f75c3a9000000000000000000000000000000000000000000000000000000602082015250565b60006117aa6025836113d4565b91506117b58261174e565b604082019050919050565b600060208201905081810360008301526117d98161179d565b9050919050565b7f4c276175746f206573742064c3a96ac3a0206c6f75c3a9000000000000000000600082015250565b60006118166017836113d4565b9150611821826117e0565b602082019050919050565b6000602082019050818103600083015261184581611809565b9050919050565b7f4c612076616c65757220656e7472c3a9652065737420696e636f727265637465600082015250565b60006118826020836113d4565b915061188d8261184c565b602082019050919050565b600060208201905081810360008301526118b181611875565b9050919050565b60006040820190506118cd60008301856113c5565b6118da60208301846113c5565b9392505050565b60006118ec82610f41565b91507fffffffffffffffffffffffffffffffffffffffffffffffffffffffffffffffff820361191e5761191d6115b7565b5b600182019050919050565b60008190508160005260206000209050919050565b60006020601f8301049050919050565b600082821b905092915050565b60006008830261198b7fffffffffffffffffffffffffffffffffffffffffffffffffffffffffffffffff8261194e565b611995868361194e565b95508019841693508086168417925050509392505050565b6000819050919050565b60006119d26119cd6119c884610f41565b6119ad565b610f41565b9050919050565b6000819050919050565b6119ec836119b7565b611a006119f8826119d9565b84845461195b565b825550505050565b600090565b611a15611a08565b611a208184846119e3565b505050565b5b81811015611a4457611a39600082611a0d565b600181019050611a26565b5050565b601f821115611a8957611a5a81611929565b611a638461193e565b81016020851015611a72578190505b611a86611a7e8561193e565b830182611a25565b50505b505050565b600082821c905092915050565b6000611aac60001984600802611a8e565b1980831691505092915050565b6000611ac58383611a9b565b9150826002028217905092915050565b611ade82610ff4565b67ffffffffffffffff811115611af757611af66111df565b5b611b01825461168b565b611b0c828285611a48565b600060209050601f831160018114611b3f5760008415611b2d578287015190505b611b378582611ab9565b865550611b9f565b601f198416611b4d86611929565b60005b82811015611b7557848901518255600182019150602085019450602081019050611b50565b86831015611b925784890151611b8e601f891682611a9b565b8355505b6001600288020188555050505b505050505050565b6000608082019050611bbc60008301876113c5565b8181036020830152611bce81866113e5565b90508181036040830152611be281856113e5565b90508181036060830152611bf681846113e5565b90509594505050505056fea26469706673582212207b74e2be58f4716070b5dedc62853b33394b6a89f211eedee84ed7f61dd485de64736f6c63430008130033",
  "immutableReferences": {},
  "source": "// SPDX-License-Identifier: MIT\npragma solidity >=0.4.22 < 0.9.0;\n\ncontract CarRental {\n    address private owner;\n    uint private carCount = 0;\n\n    struct Car {\n        uint id;\n        address owner;\n        string brand;\n        string model;\n        string yearOfConstruction;\n        uint rentalPricePerDay;\n        bool isRented;\n    }\n\n    mapping(uint => Car) public cars;\n    mapping(uint => address) public carRenters;\n    mapping(address => uint) public deposits;\n\n    event CarAdded(uint carId, string brand, string model, string yearOfConstruction);\n    event CarRented(uint carId, address indexed renter, uint numDays);\n    event CarReturned(uint carId, address indexed renter);\n    event CarRemoved(uint carId);\n\n    modifier onlyOwner() {\n        require(msg.sender == owner, unicode\"Cette personne n'est pas le propritaire de l'auto\");\n        _;\n    }\n\n    constructor() {\n        owner = msg.sender;\n    }\n\n    function addCar(string memory _brand, string memory _model, string memory _yearOfConstruction, uint _rentalPricePerDay) public onlyOwner {\n        uint carId = carCount++;\n        cars[carId] = Car(carId, msg.sender, _brand, _model, _yearOfConstruction, _rentalPricePerDay, false);\n        emit CarAdded(carId, _brand, _model, _yearOfConstruction);\n    }\n\n    function rentCar(uint _carId, uint _numDays) public payable {\n        Car storage car = cars[_carId];\n        require(!car.isRented, unicode\"L'auto est dj lou\");\n        require(msg.value == car.rentalPricePerDay * _numDays * 2, unicode\"La valeur entre est incorrecte\");\n\n        carRenters[_carId] = msg.sender;\n        deposits[msg.sender] = msg.value;\n        car.isRented = true;\n        emit CarRented(_carId, msg.sender, _numDays);\n    }\n\n    function returnCar(uint _carId) public {\n        require(carRenters[_carId] == msg.sender, unicode\"Vous n'tes pas le locataire de cet auto\");\n        Car storage car = cars[_carId];\n\n        uint deposit = deposits[msg.sender];\n        uint refundAmount = deposit - car.rentalPricePerDay * 2;\n        deposits[msg.sender] = 0;\n\n        payable(msg.sender).transfer(refundAmount);\n        car.isRented = false;\n        emit CarReturned(_carId, msg.sender);\n    }\n\n    function getCar(uint _carId) public view returns (Car memory) {\n        return cars[_carId];\n    }\n\n    function removeCar(uint _carId) public onlyOwner {\n        require(!cars[_carId].isRented, unicode\"L'auto est prsentement dj lou\");\n        delete cars[_carId];\n        emit CarRemoved(_carId);\n    }\n}",
  "sourcePath": "/Users/charles-antoinegaudreault/Library/CloudStorage/OneDrive-UniversiteLaval/cours/H24/IFT-4100/TP3/contracts/CarRental.sol",
  "compiler": {
    "name": "solc",
    "version": "0.8.19+commit.7dd6d404.Emscripten.clang"
  },
  "schemaVersion": "3.4.16",
  "updatedAt": "2024-04-15T18:42:22.185Z",
  "networkType": "ethereum",
  "devdoc": {
    "kind": "dev",
    "methods": {},
    "version": 1
  },
  "userdoc": {
    "kind": "user",
    "methods": {},
    "version": 1
  }
}